:020000040800F2
:100000000050002021020008270200082B020008EF
:1000100043020008470200085F02000800000000D9
:10002000000000000000000000000000770200084F
:100030007B020008000000007F0200084D1100084C
:100040009102000891020008910200089102000844
:100050009102000891020008910200089102000834
:100060009102000891020008910200089102000824
:100070009102000891020008910200089102000814
:100080009102000891020008910200089102000804
:1000900091020008910200089102000891020008F4
:1000A00091020008910200089102000891020008E4
:1000B00091020008910200089102000891020008D4
:1000C00091020008910200089102000891020008C4
:1000D00091020008910200089102000891020008B4
:1000E000910200089102000891020008000000003F
:1000F0000000000000000000000000000000000000
:1001000000000000000000005FF808F100B583B0B7
:1001100000F018FF304B314A1360314A1360314B05
:10012000314A03E052F8041B43F8041B2F498B4269
:10013000F8D32A4B1A682E4B9A4200D0FEE7284B80
:100140001A682C4B9A42F9D1234B2B4A13602B4A45
:1001500013602B4B02E0002243F8042B294A934200
:10016000F9D3254B1B6813B9244B1B6803B1FEE779
:1001700000F0F4FE694601A800F0DCFE224C234B9F
:10018000E41AA410002504E0204B53F825309847CA
:100190000135AC42F8DC1E4C1E4BE41AA4100025BD
:1001A00004E01C4B53F8253098470135AC42F8DC8D
:1001B0000099019800F0FAFF0546174C174BE41A16
:1001C000A41004E0013C154B53F824309847002C50
:1001D000F8DC284600F0ACFEBABADECA0000002007
:1001E0002800002000000020781300082C000020C8
:1001F00078563412325476982C0000205400002097
:100200002C00002058000020BC020008BC0200089E
:10021000BC020008BC020008BC020008BC020008C6
:1002200008B5FFF773FF00BEFEE71EF0040F0CBF1A
:10023000EFF30880EFF309807146124A104700BEC1
:10024000FEE700BEFEE71EF0040F0CBFEFF30880D0
:10025000EFF3098071460C4A104700BEFEE71EF01E
:10026000040F0CBFEFF30880EFF309807146074AD3
:10027000104700BEFEE700BEFEE700BEFEE700BE80
:10028000FEE770473F0200085B02000873020008A7
:0402900000BEFEE7C7
:1002940078130008000000202C00002078130008C8
:1002A40000000000000000002C0000205800002086
:0802B400000000000000000042
:1002BC00F8B505460C46494B98421BD003F58063B4
:1002CC00984217D003F58063984213D003F58063EE
:1002DC0098420FD003F5806398420BD003F58063EE
:1002EC00984207D003F58063984203D0B2213C4872
:1002FC0000F0F0FFE3786BB1042B0BD0282B09D066
:10030C00482B07D0142B05D0102B03D01C2B01D05D
:10031C00182B14D12388BBB1E37803F00F063046B9
:10032C0013F0100F06D0A378013BDBB2022B10D8D0
:10033C00A078304323785BB32E68002310E0B32100
:10034C00274800F0C7FFE5E7B421254800F0C2FFBD
:10035C00E2E7BB21224800F0BDFFE9E76A61013307
:10036C00072B14D801229A40218832EA0101F6D1D8
:10037C0099000F278F4026EA070600FA01F10E4379
:10038C00E1782829EAD04829E9D12A61E7E72E60EB
:10039C002388FF2B20D96E68002302E06A6115E0E8
:1003AC000133072B17D803F1080101228A40218859
:1003BC0032EA0101F4D199000F278F4026EA070693
:1003CC0000FA01F10E43E1782829E7D0E1784829B9
:1003DC00E6D12A61E4E76E60F8BD00BF0008014079
:1003EC00E412000838B504460D460E4B034003B921
:1003FC0020B940F24A410C4800F06CFF012D05D8A1
:10040C0055B10A4A93691C43946138BD40F24B4183
:10041C00054800F05FFFF3E7044A936923EA0404FC
:10042C009461F2E70200C0FF1813000800100240AC
:10043C0038B504460D460E4B184200D120B940F297
:10044C0069410C4800F046FF012D05D855B10A4A08
:10045C00D3691C43D46138BD40F26A41054800F0B1
:10046C0039FFF3E7044AD36923EA0404D461F2E7C1
:10047C0000360181181300080010024038B50446FC
:10048C000D46534B984242D0B0F1804F3FD0A3F56C
:10049C00943398423BD003F58063984237D003F5F0
:1004AC008063984233D003F5806398422FD003F5D4
:1004BC00806398422BD003F59033984227D003F5F4
:1004CC00C053984223D003F5806398421FD003F5A4
:1004DC00806398421BD0A3F59E33984217D003F546
:1004EC008063984213D003F5806398420FD003F5D4
:1004FC00903398420BD003F58063984207D003F5F4
:10050C008063984203D0E721324800F0E3FE6B8809
:10051C003BB1102B05D0202B03D0402B01D0602BEE
:10052C004CD1EB882BB1B3F5807F02D0B3F5007FB3
:10053C0049D123889BB2264A944212D002F500621C
:10054C0094420ED0B4F1804F0BD0A2F59832944265
:10055C0007D002F58062944203D002F58062944287
:10056C0003D123F070036A8813431B4A944208D0CA
:10057C0002F58062944204D023F440739BB2EA8863
:10058C0013432380AB88A3852B882385104B9C4277
:10059C000FD003F500639C420BD003F540639C42E3
:1005AC0007D003F580639C4203D003F580639C4223
:1005BC0001D12B7A23860123A38238BDE82105487B
:1005CC0000F088FEADE7E921024800F083FEB0E7B9
:1005DC00002C014048130008001000402DE9F041A8
:1005EC0004460D46684B98423BD0B0F1804F38D052
:1005FC00A3F59433984234D003F58063984230D0FD
:10060C0003F5806398422CD003F59433984228D09C
:10061C0003F5C053984224D003F58063984220D050
:10062C0003F5806398421CD0A3F59E33984218D0F2
:10063C0003F58063984214D003F58063984210D080
:10064C0003F5903398420CD003F58063984208D0A0
:10065C0003F58063984204D04FF48E714B4800F040
:10066C0039FE2B884BB1102B07D0202B05D0302B0B
:10067C0003D0602B01D0702B5CD16B88012B5FD821
:10068C002B890BB1022B61D1238C9BB223F001037C
:10069C009BB22384268CB6B2A788BFB2B4F818805C
:1006AC001FFA88F828F073082B8848EA030826F00C
:1006BC0002062B8933436E881E43334B9C420FD06A
:1006CC0003F500639C420BD003F540639C4207D0BA
:1006DC0003F580639C4203D003F580639C4221D1D7
:1006EC00AB880BB1042B37D16B890BB1082B39D1EB
:1006FC00EB89B3F5007F01D0002B39D1AB89B3F571
:10070C00807F01D0002B39D126F008066B891E435F
:10071C0026F00406AB881E4327F44077AB891F43B1
:10072C00EB891F43A780A4F81880EB88A386268446
:10073C00BDE8F08140F21D11144800F0CBFD9CE7A0
:10074C004FF48F71114800F0C5FD99E740F21F116D
:10075C000E4800F0BFFD97E74FF49E710B4800F078
:10076C00B9FDC1E740F23D11084800F0B3FDBFE709
:10077C004FF49F71054800F0ADFDBFE740F23F110B
:10078C00024800F0A7FDBFE7002C01404813000809
:10079C002DE9F04104460E465E4B984223D0B0F151
:1007AC00804F20D0A3F5943398421CD003F580637E
:1007BC00984218D003F58063984214D003F5943313
:1007CC00984210D003F5C05398420CD0A3F59A333D
:1007DC00984208D003F59433984204D040F26F113C
:1007EC004D4800F077FD33884BB1102B07D0202BF0
:1007FC0005D0302B03D0602B01D0702B5FD17388C8
:10080C00012B62D833890BB1022B64D1238C9BB2A0
:10081C0023F010039BB22384258CADB2B4F8048072
:10082C001FFA88F8278BBFB227F4E64733881B02E0
:10083C009BB21F4325F0200533891B019BB22B4330
:10084C0075882D01ADB21D43324B9C4203D003F58C
:10085C0000639C422BD1B3880BB1042B41D173891B
:10086C000BB1082B43D1F389B3F5007F01D0002BDA
:10087C0043D1B389B3F5807F01D0002B43D125F050
:10088C00800573891B019BB21D4325F04005B3887D
:10089C001B019BB21D4328F44068B3899B009BB29B
:1008AC0048EA0308F3899B009BB243EA0808A4F8C2
:1008BC0004802783F38823872584BDE8F0814FF4D7
:1008CC00B871154800F006FD99E740F27111124815
:1008DC0000F000FD96E74FF4B9710F4800F0FAFCF8
:1008EC0094E740F28F110C4800F0F4FCB7E74FF49A
:1008FC00C871094800F0EEFCB5E740F291110648CA
:10090C0000F0E8FCB5E74FF4C971034800F0E2FCD5
:10091C00B5E700BF002C0140481300082DE9F04159
:10092C0004460E46574B984217D0B0F1804F14D066
:10093C00A3F59433984210D003F5806398420CD001
:10094C0003F58063984208D003F59433984204D0A1
:10095C0040F2C1114C4800F0BDFC33884BB1102B58
:10096C0007D0202B05D0302B03D0602B01D0702B5F
:10097C005DD17388012B60D833890BB1022B62D106
:10098C00238C9BB223F480739BB22384258CADB251
:10099C00B4F804801FFA88F8A78BBFB227F073074E
:1009AC0033881F4325F4007533891B029BB22B43FC
:1009BC0075882D02ADB21D43324B9C4203D003F51A
:1009CC0000639C422BD1B3880BB1042B41D17389AA
:1009DC000BB1082B43D1F389B3F5007F01D0002B69
:1009EC0043D1B389B3F5807F01D0002B43D125F4DB
:1009FC00006573891B029BB21D4325F48065B38887
:100A0C001B029BB21D4328F44058B3891B019BB2B7
:100A1C0048EA0308F3891B019BB243EA0808A4F8CF
:100A2C000480A783F388A3872584BDE8F0814FF465
:100A3C00E171154800F04EFC9BE740F2C3111248DF
:100A4C0000F048FC98E74FF4E2710F4800F042FCCC
:100A5C0096E74FF4F0710C4800F03CFCB7E740F21D
:100A6C00E111094800F036FCB5E74FF4F171064886
:100A7C0000F030FCB5E740F2E311034800F02AFC2B
:100A8C00B5E700BF002C0140481300082DE9F041E8
:100A9C0004460D463F4B984217D0B0F1804F14D00E
:100AAC00A3F59433984210D003F5806398420CD090
:100ABC0003F58063984208D003F59433984204D030
:100ACC004FF40471344800F005FC2B884BB1102B0B
:100ADC0007D0202B05D0302B03D0602B01D0702BEE
:100AEC0040D16B88012B43D82B890BB1022B45D1FC
:100AFC00238C9BB223F480539BB22384268CB6B2F6
:100B0C00B4F804801FFA88F8A78BBFB227F4E64725
:100B1C002B881B029BB21F4326F400562B891B0308
:100B2C009BB233436E883603B6B21E43194B9C42BC
:100B3C0003D003F500639C420BD1AB89B3F5807FE6
:100B4C0000D00BBB28F48048AB899B019BB248EAD0
:100B5C000308A4F80480A783EB88A4F8403026840B
:100B6C00BDE8F08140F211210B4800F0B3FBB8E76F
:100B7C0040F21221084800F0ADFBB5E740F213211A
:100B8C00054800F0A7FBB3E74FF40C71024800F0E6
:100B9C00A1FBD7E7002C01404813000838B50446E8
:100BAC000D462E4B984243D0B0F1804F40D0A3F568
:100BBC00943398423CD003F58063984238D003F5C7
:100BCC008063984234D003F58063984230D003F5AB
:100BDC00806398422CD003F59033984228D003F5CB
:100BEC00C053984224D003F58063984220D003F57B
:100BFC00806398421CD0A3F59E33984218D003F51D
:100C0C008063984214D003F58063984210D003F5AA
:100C1C00903398420CD003F58063984208D003F5CA
:100C2C008063984204D040F229310D4800F052FB09
:100C3C00012D05D855B1238843F00103238038BD1D
:100C4C0040F22A31064800F045FBF3E723889BB2BB
:100C5C0023F001039BB22380F1E700BF002C01407D
:100C6C004813000838B504460D462E4B984243D025
:100C7C00B0F1804F40D0A3F5943398423CD003F5AB
:100C8C008063984238D003F58063984234D003F5E2
:100C9C008063984230D003F5806398422CD003F5E2
:100CAC009033984228D003F5C053984224D003F5D2
:100CBC008063984220D003F5806398421CD0A3F542
:100CCC009E33984218D003F58063984214D003F5F4
:100CDC008063984210D003F5903398420CD003F502
:100CEC008063984208D003F58063984204D040F2A8
:100CFC0084510D4800F0EEFA012D05D855B123882A
:100D0C0043F08003238038BD40F28551064800F043
:100D1C00E1FAF3E723889BB223F080039BB2238094
:100D2C00F1E700BF002C01404813000838B5044619
:100D3C000D46274B98423BD0B0F1804F38D0A3F5ED
:100D4C009433984234D003F58063984230D003F545
:100D5C00806398422CD003F59433984228D003F545
:100D6C00C053984224D003F58063984220D003F5F9
:100D7C00806398421CD0A3F59E33984218D003F59B
:100D8C008063984214D003F58063984210D003F529
:100D9C00903398420CD003F58063984208D003F549
:100DAC008063984204D040F2E9510A4800F092FA6C
:100DBC00082D00D035B9218B89B221F008012943C7
:100DCC00218338BD40F2EA51024800F083FAF2E781
:100DDC00002C01404813000838B505460C461C4B46
:100DEC00984223D0B0F1804F20D0A3F59433984291
:100DFC001CD003F58063984218D003F580639842A9
:100E0C0014D003F59433984210D003F5C053984294
:100E1C000CD0A3F59A33984208D003F5943398423A
:100E2C0004D040F202610B4800F054FA082C00D0B8
:100E3C0044B9298B89B221F400612402A4B2214364
:100E4C00298338BD40F20361024800F043FAF0E711
:100E5C00002C01404813000838B504460D46154BCC
:100E6C00984217D0B0F1804F14D0A3F59433984228
:100E7C0010D003F5806398420CD003F58063984240
:100E8C0008D003F59433984204D040F21A610A4812
:100E9C0000F020FA082D00D035B9A18B89B221F0D1
:100EAC0008012943A18338BD40F21B61024800F0C0
:100EBC0011FAF2E7002C01404813000838B505463A
:100ECC000C46164B984217D0B0F1804F14D0A3F5B6
:100EDC009433984210D003F5806398420CD003F5FC
:100EEC008063984208D003F59433984204D040F2C2
:100EFC0032610B4800F0EEF9082C00D044B9A98BF4
:100F0C0089B221F400612402A4B22143A98338BD23
:100F1C0040F23361024800F0DDF9F0E7002C0140AB
:100F2C0048130008FEE7000001230360014B0B602F
:100F3C00704700BF0400002008B500F073F8024AA7
:100F4C00024B9A6008BD00BF0000000800ED00E0F5
:100F5C0008B500F08FF808BD82B000230193009310
:100F6C002C4A136843F4803313602A4B1B6803F438
:100F7C0000330093019B01330193009B1BB9019B30
:100F8C00B3F5A06FF1D1234B1B6813F4003F06D0CF
:100F9C0001230093009B012B04D002B07047002367
:100FAC000093F7E71C4B1A6842F010021A601A689B
:100FBC0022F003021A601A6842F002021A60A3F5CA
:100FCC0080535A685A605A685A605A6842F4806270
:100FDC005A605A6822F47C125A605A6842F4E81239
:100FEC005A601A6842F080721A600A4B1B6813F040
:100FFC00007FFAD0074B5A6822F003025A605A68F5
:10100C0042F002025A60034B5B6803F00C03082B9E
:10101C00F9D1C2E7001002400020024008B5FFF7EA
:10102C009BFF08BD08B5104B1A6842F001021A600C
:10103C0059680E4A0A405A601A6822F0847222F4E7
:10104C0080321A601A6822F480221A605A6822F4DC
:10105C00FE025A604FF41F029A60FFF7DFFF044B49
:10106C004FF000629A6008BD001002400000FFF8CB
:10107C0000ED00E01F4B5B6803F00C03042B15D054
:10108C00082B17D01BB11C4B1C4A1A6002E01A4BE0
:10109C001A4A1A60174B5B68C3F30313184AD35CE4
:1010AC00DAB215490B68D3400B607047124B134AE8
:1010BC001A60EFE70F4A53685268C3F38343023355
:1010CC0012F4803F05D10F4A02FB03F30A4A136066
:1010DC00E0E7084A526812F4003F05D0094A02FBC7
:1010EC0003F3054A1360D5E7044A02FB03F3024AF3
:1010FC001360CFE7001002401C00002000127A00A1
:10110C000C00002000093D004FF47A7303FB00F043
:10111C00094B1860094B00229A601A6842F00102D0
:10112C001A60054B1B68002BFBD1044A136823F093
:10113C0001031360704700BF3400002010E000E092
:10114C00034B1B681BB1013B014A1360F8E7704766
:10115C003400002008B501210220FFF769F90121B4
:10116C001D20FFF73FF908BD10B582B0C023ADF8C4
:10117C00043018238DF8073003248DF8064001A99C
:10118C000548FFF795F8ADF8044001A90348FFF7AF
:10119C008FF802B010BD00BF00080140000C0140E8
:1011AC00F8B5FFF7D7FFFFF7DFFF404B1B68404A4E
:1011BC00A2FB03235B0D013B9BB23E4A13803E49CD
:1011CC0040F299228A800B800026CE804E803B4DC7
:1011DC002846FFF753F93A4C602323800127678098
:1011EC00384B1B88E380268121462846FFF7F6F909
:1011FC0008212846FFF79AFD6780334B1B88E38054
:10120C0021462846FFF7C4FA08212846FFF7E4FDDB
:10121C0067802E4B1B88E38021462846FFF77EFB18
:10122C0008212846FFF718FE6780294B1B88E380AE
:10123C0021462846FFF72AFC08212846FFF73EFEE8
:10124C0039462846FFF70EFD39462846FFF7A6FC1F
:10125C004FF461741FE0013CA4B240F2E7339C42AE
:10126C0021D004B90127164960230B8001264E803A
:10127C00CC8000230B81114D2846FFF7AFF90821D4
:10128C002846FFF753FD31462846FFF7EBFC314665
:10129C002846FFF783FC6420FFF736FF002FDAD0D7
:1012AC000134A4B2D9E70027DBE700BF1C00002003
:1012BC00819F5E16320000203800002000040040A0
:1012CC0044000020200000202200002024000020E8
:1012DC0026000020704700002E2E2F737973746542
:1012EC006D2F7372632F73746D333266312D73747B
:1012FC00647065726970682F73746D333266313047
:10130C00785F6770696F2E63000000002E2E2F73BC
:10131C00797374656D2F7372632F73746D333266CA
:10132C00312D7374647065726970682F73746D33CA
:10133C0032663130785F7263632E63002E2E2F730A
:10134C00797374656D2F7372632F73746D3332669A
:10135C00312D7374647065726970682F73746D339A
:0C136C0032663130785F74696D2E6300CA
:101378007856341230000020000000000000000001
:1013880000000000010203040607080900A24A043D
:0C1398004D01F900A60053003254769875
:040000050800010DE1
:00000001FF
