:020000040800F2
:100000000050002021020008270200082B020008EF
:1000100043020008470200085F02000800000000D9
:10002000000000000000000000000000770200084F
:100030007B020008000000007F020008AD0C0008F1
:100040009102000891020008910200089102000844
:100050009102000891020008910200089102000834
:100060009102000891020008910200089102000824
:100070009102000891020008910200089102000814
:100080009102000891020008910200089102000804
:1000900091020008910200089102000891020008F4
:1000A00091020008910200089102000891020008E4
:1000B00091020008910200089102000891020008D4
:1000C00091020008910200089102000891020008C4
:1000D00091020008910200089102000891020008B4
:1000E000910200089102000891020008000000003F
:1000F0000000000000000000000000000000000000
:1001000000000000000000005FF808F100B583B0B7
:1001100000F0CCFC304B314A1360314A1360314B54
:10012000314A03E052F8041B43F8041B2F498B4269
:10013000F8D32A4B1A682E4B9A4200D0FEE7284B80
:100140001A682C4B9A42F9D1234B2B4A13602B4A45
:1001500013602B4B02E0002243F8042B294A934200
:10016000F9D3254B1B6813B9244B1B6803B1FEE779
:1001700000F0A8FC694601A800F08CFC224C234B3F
:10018000E41AA410002504E0204B53F825309847CA
:100190000135AC42F8DC1E4C1E4BE41AA4100025BD
:1001A00004E01C4B53F8253098470135AC42F8DC8D
:1001B0000099019800F0D2FD0546174C174BE41A40
:1001C000A41004E0013C154B53F824309847002C50
:1001D000F8DC284600F058FCBABADECA000000205D
:1001E0002000002000000020100E00082400002045
:1001F00078563412325476982400002030000020C3
:100200002400002034000020BC020008BC020008CA
:10021000BC020008BC020008BC020008BC020008C6
:1002200008B5FFF773FF00BEFEE71EF0040F0CBF1A
:10023000EFF30880EFF309807146124A104700BEC1
:10024000FEE700BEFEE71EF0040F0CBFEFF30880D0
:10025000EFF3098071460C4A104700BEFEE71EF01E
:10026000040F0CBFEFF30880EFF309807146074AD3
:10027000104700BEFEE700BEFEE700BEFEE700BE80
:10028000FEE770473F0200085B02000873020008A7
:0402900000BEFEE7C7
:10029400100E00080000002024000020100E0008AA
:1002A40000000000000000002400002034000020B2
:0802B400000000000000000042
:1002BC00F8B505460C46494B98421BD003F58063B4
:1002CC00984217D003F58063984213D003F58063EE
:1002DC0098420FD003F5806398420BD003F58063EE
:1002EC00984207D003F58063984203D0B2213C4872
:1002FC0000F0D2FBE3786BB1042B0BD0282B09D088
:10030C00482B07D0142B05D0102B03D01C2B01D05D
:10031C00182B14D12388BBB1E37803F00F063046B9
:10032C0013F0100F06D0A378013BDBB2022B10D8D0
:10033C00A078304323785BB32E68002310E0B32100
:10034C00274800F0A9FBE5E7B421254800F0A4FB01
:10035C00E2E7BB21224800F09FFBE9E76A61013329
:10036C00072B14D801229A40218832EA0101F6D1D8
:10037C0099000F278F4026EA070600FA01F10E4379
:10038C00E1782829EAD04829E9D12A61E7E72E60EB
:10039C002388FF2B20D96E68002302E06A6115E0E8
:1003AC000133072B17D803F1080101228A40218859
:1003BC0032EA0101F4D199000F278F4026EA070693
:1003CC0000FA01F10E43E1782829E7D0E1784829B9
:1003DC00E6D12A61E4E76E60F8BD00BF0008014079
:1003EC007C0D000838B504460D460E4B034003B98E
:1003FC0020B940F24A410C4800F04EFB012D05D8C3
:10040C0055B10A4A93691C43946138BD40F24B4183
:10041C00054800F041FBF3E7044A936923EA04041E
:10042C009461F2E70200C0FFB00D0008001002401A
:10043C0038B504460D46534B984242D0B0F1804F2C
:10044C003FD0A3F5943398423BD003F58063984298
:10045C0037D003F58063984233D003F5806398421C
:10046C002FD003F5806398422BD003F5903398423C
:10047C0027D003F5C053984223D003F580639842EC
:10048C001FD003F5806398421BD0A3F59E3398428E
:10049C0017D003F58063984213D003F5806398421C
:1004AC000FD003F5903398420BD003F5806398423C
:1004BC0007D003F58063984203D0E721324800F05F
:1004CC00EBFA6B883BB1102B05D0202B03D0402BC3
:1004DC0001D0602B4CD1EB882BB1B3F5807F02D0CF
:1004EC00B3F5007F49D123889BB2264A944212D09F
:1004FC0002F5006294420ED0B4F1804F0BD0A2F5FD
:10050C009832944207D002F58062944203D002F5EF
:10051C008062944203D123F070036A8813431B4A10
:10052C00944208D002F58062944204D023F44073C4
:10053C009BB2EA8813432380AB88A3852B88238541
:10054C00104B9C420FD003F500639C420BD003F57B
:10055C0040639C4207D003F580639C4203D003F5B3
:10056C0080639C4201D12B7A23860123A38238BD60
:10057C00E821054800F090FAADE7E921024800F0C7
:10058C008BFAB0E7002C0140E00D00080010004091
:10059C002DE9F04104460D46684B98423BD0B0F132
:1005AC00804F38D0A3F59433984234D003F5806350
:1005BC00984230D003F5806398422CD003F59433E5
:1005CC00984228D003F5C053984224D003F5806399
:1005DC00984220D003F5806398421CD0A3F59E333B
:1005EC00984218D003F58063984214D003F58063C9
:1005FC00984210D003F5903398420CD003F58063E9
:10060C00984208D003F58063984204D04FF48E7161
:10061C004B4800F041FA2B884BB1102B07D0202B04
:10062C0005D0302B03D0602B01D0702B5CD16B88A4
:10063C00012B5FD82B890BB1022B61D1238C9BB280
:10064C0023F001039BB22384268CB6B2A788BFB2D9
:10065C00B4F818801FFA88F828F073082B8848EA39
:10066C00030826F002062B8933436E881E43334B56
:10067C009C420FD003F500639C420BD003F5406302
:10068C009C4207D003F580639C4203D003F5806342
:10069C009C4221D1AB880BB1042B37D16B890BB1A8
:1006AC00082B39D1EB89B3F5007F01D0002B39D160
:1006BC00AB89B3F5807F01D0002B39D126F0080629
:1006CC006B891E4326F00406AB881E4327F4407743
:1006DC00AB891F43EB891F43A780A4F81880EB88D4
:1006EC00A3862684BDE8F08140F21D11144800F069
:1006FC00D3F99CE74FF48F71114800F0CDF999E7CD
:10070C0040F21F110E4800F0C7F997E74FF49E71A5
:10071C000B4800F0C1F9C1E740F23D11084800F068
:10072C00BBF9BFE74FF49F71054800F0B5F9BFE77F
:10073C0040F23F11024800F0AFF9BFE7002C014036
:10074C00E00D000838B504460D462E4B984243D0B8
:10075C00B0F1804F40D0A3F5943398423CD003F5D0
:10076C008063984238D003F58063984234D003F507
:10077C008063984230D003F5806398422CD003F507
:10078C009033984228D003F5C053984224D003F5F7
:10079C008063984220D003F5806398421CD0A3F567
:1007AC009E33984218D003F58063984214D003F519
:1007BC008063984210D003F5903398420CD003F527
:1007CC008063984208D003F58063984204D040F2CD
:1007DC0029310D4800F060F9012D05D855B1238859
:1007EC0043F00103238038BD40F22A31064800F063
:1007FC0053F9F3E723889BB223F001039BB22380C8
:10080C00F1E700BF002C0140E00D000838B50446AC
:10081C000D46174B984214D003F50063984210D044
:10082C0003F5406398420CD003F58063984208D0DE
:10083C0003F58063984204D040F242310D4800F039
:10084C002BF9012D07D865B1B4F8443043F40043BB
:10085C00A4F8443038BD40F24331064800F01CF98E
:10086C00F1E7B4F84430C3F30E03A4F84430F1E7D5
:10087C00002C0140E00D000838B504460D462E4B07
:10088C00984243D0B0F1804F40D0A3F594339842B6
:10089C003CD003F58063984238D003F580639842CE
:1008AC0034D003F58063984230D003F580639842CE
:1008BC002CD003F59033984228D003F5C0539842BE
:1008CC0024D003F58063984220D003F580639842CE
:1008DC001CD0A3F59E33984218D003F58063984240
:1008EC0014D003F58063984210D003F590339842EE
:1008FC000CD003F58063984208D003F580639842CE
:10090C0004D040F284510D4800F0C6F8012D05D8F2
:10091C0055B1238843F08003238038BD40F28551C4
:10092C00064800F0B9F8F3E723889BB223F0800364
:10093C009BB22380F1E700BF002C0140E00D0008C2
:10094C0038B504460D46274B98423BD0B0F1804F4A
:10095C0038D0A3F59433984234D003F58063984291
:10096C0030D003F5806398422CD003F59433984231
:10097C0028D003F5C053984224D003F580639842E5
:10098C0020D003F5806398421CD0A3F59E33984287
:10099C0018D003F58063984214D003F58063984215
:1009AC0010D003F5903398420CD003F58063984235
:1009BC0008D003F58063984204D040F2E9510A480C
:1009CC0000F06AF8082D00D035B9218B89B221F0DE
:1009DC0008012943218338BD40F2EA51024800F056
:1009EC005BF8F2E7002C0140E00D000838B5044636
:1009FC000D46204B98423BD0B0F1804F38D0A3F538
:100A0C009433984234D003F58063984230D003F588
:100A1C00806398422CD003F59433984228D003F588
:100A2C00C053984224D003F58063984220D003F53C
:100A3C00806398421CD0A3F59E33984218D003F5DE
:100A4C008063984214D003F58063984210D003F56C
:100A5C00903398420CD003F58063984208D003F58C
:100A6C008063984204D040F60211034800F014F859
:100A7C00A58638BD002C0140E00D0008FEE708B546
:100A8C000120FFF7FBFF000001230360014B0B600B
:100A9C00704700BF0400002008B5FFF7F0FF00000E
:100AAC0008B500F073F8024A024B9A6008BD00BF0B
:100ABC000000000800ED00E008B500F08FF808BD5C
:100ACC0082B00023019300932C4A136843F48033C3
:100ADC0013602A4B1B6803F400330093019B013312
:100AEC000193009B1BB9019BB3F5A06FF1D1234B74
:100AFC001B6813F4003F06D001230093009B012BCD
:100B0C0004D002B0704700230093F7E71C4B1A681F
:100B1C0042F010021A601A6822F003021A601A6876
:100B2C0042F002021A60A3F580535A685A605A6860
:100B3C005A605A6842F480625A605A6822F47C12F5
:100B4C005A605A6842F4E8125A601A6842F080728D
:100B5C001A600A4B1B6813F0007FFAD0074B5A68D7
:100B6C0022F003025A605A6842F002025A60034BA8
:100B7C005B6803F00C03082BF9D1C2E700100240AC
:100B8C000020024008B5FFF79BFF08BD08B5104BCD
:100B9C001A6842F001021A6059680E4A0A405A60FB
:100BAC001A6822F0847222F480321A601A6822F4D5
:100BBC0080221A605A6822F4FE025A604FF41F0217
:100BCC009A60FFF7DFFF044B4FF000629A6008BD9C
:100BDC00001002400000FFF800ED00E01F4B5B68C6
:100BEC0003F00C03042B15D0082B17D01BB11C4B96
:100BFC001C4A1A6002E01A4B1A4A1A60174B5B68BF
:100C0C00C3F30313184AD35CDAB215490B68D3400B
:100C1C000B607047124B134A1A60EFE70F4A536888
:100C2C005268C3F38343023312F4803F05D10F4A59
:100C3C0002FB03F30A4A1360E0E7084A526812F415
:100C4C00003F05D0094A02FB03F3054A1360D5E7C0
:100C5C00044A02FB03F3024A1360CFE70010024080
:100C6C001C00002000127A000C00002000093D003E
:100C7C00084B1B68084AA2FB03239B0C013B074A49
:100C8C0053600023936007231360136823F0010360
:100C9C00136070471C00002083DE1B4310E000E053
:100CAC00034B1B681BB1013B014A1360F8E770470B
:100CBC002C00002070B588B005460C4601214FF47D
:100CCC000060FFF78FFB01210420FFF78BFB4FF433
:100CDC008073ADF81C3018238DF81F3003238DF86A
:100CEC001E3007A91848FFF7E3FAADF81450ADF819
:100CFC0010400026ADF81660ADF81260134C04A934
:100D0C002046FFF795FB7023ADF800300125ADF8B8
:100D1C000250ADF80660ADF8086069462046FFF752
:100D2C0037FC29462046FFF771FD08212046FFF7C6
:100D3C0007FE29462046FFF79FFD29462046FFF770
:100D4C0001FD08B070BD00BF00080140002C01403F
:100D5C0008B5FFF78DFF002140F28330FFF7AAFFA3
:100D6C004FF4FA710148FFF741FEF9E7002C0140FE
:100D7C002E2E2F73797374656D2F7372632F7374AA
:100D8C006D333266312D7374647065726970682FBF
:100D9C0073746D3332663130785F6770696F2E63B0
:100DAC00000000002E2E2F73797374656D2F7372F3
:100DBC00632F73746D333266312D73746470657286
:100DCC006970682F73746D3332663130785F72637B
:100DDC00632E63002E2E2F73797374656D2F7372CF
:100DEC00632F73746D333266312D73746470657256
:100DFC006970682F73746D3332663130785F746943
:040E0C006D2E6300E4
:100E10007856341228000020000000000000000076
:100E200000000000010203040607080900A24A04AA
:040E3000325476982A
:040000050800010DE1
:00000001FF
